{
  "_format": "hh-sol-artifact-1",
  "contractName": "AuditRegistry",
  "sourceName": "contracts/AuditRegistry.sol",
  "abi": [
    {
      "anonymous": false,
      "inputs": [
        {
          "indexed": true,
          "internalType": "address",
          "name": "requester",
          "type": "address"
        },
        {
          "indexed": false,
          "internalType": "string",
          "name": "contractName",
          "type": "string"
        },
        {
          "indexed": false,
          "internalType": "uint256",
          "name": "securityScore",
          "type": "uint256"
        },
        {
          "indexed": false,
          "internalType": "string",
          "name": "ipfsCid",
          "type": "string"
        },
        {
          "indexed": false,
          "internalType": "uint256",
          "name": "timestamp",
          "type": "uint256"
        }
      ],
      "name": "AuditStored",
      "type": "event"
    },
    {
      "inputs": [
        {
          "internalType": "uint256",
          "name": "",
          "type": "uint256"
        }
      ],
      "name": "audits",
      "outputs": [
        {
          "internalType": "address",
          "name": "requester",
          "type": "address"
        },
        {
          "internalType": "string",
          "name": "contractName",
          "type": "string"
        },
        {
          "internalType": "uint256",
          "name": "securityScore",
          "type": "uint256"
        },
        {
          "internalType": "string",
          "name": "ipfsCid",
          "type": "string"
        },
        {
          "internalType": "uint256",
          "name": "timestamp",
          "type": "uint256"
        }
      ],
      "stateMutability": "view",
      "type": "function"
    },
    {
      "inputs": [
        {
          "internalType": "uint256",
          "name": "index",
          "type": "uint256"
        }
      ],
      "name": "getAudit",
      "outputs": [
        {
          "internalType": "address",
          "name": "requester",
          "type": "address"
        },
        {
          "internalType": "string",
          "name": "contractName",
          "type": "string"
        },
        {
          "internalType": "uint256",
          "name": "securityScore",
          "type": "uint256"
        },
        {
          "internalType": "string",
          "name": "ipfsCid",
          "type": "string"
        },
        {
          "internalType": "uint256",
          "name": "timestamp",
          "type": "uint256"
        }
      ],
      "stateMutability": "view",
      "type": "function"
    },
    {
      "inputs": [
        {
          "internalType": "string",
          "name": "_contractName",
          "type": "string"
        },
        {
          "internalType": "uint256",
          "name": "_securityScore",
          "type": "uint256"
        },
        {
          "internalType": "string",
          "name": "_ipfsCid",
          "type": "string"
        }
      ],
      "name": "storeAudit",
      "outputs": [],
      "stateMutability": "nonpayable",
      "type": "function"
    },
    {
      "inputs": [],
      "name": "totalAudits",
      "outputs": [
        {
          "internalType": "uint256",
          "name": "",
          "type": "uint256"
        }
      ],
      "stateMutability": "view",
      "type": "function"
    }
  ],
  "bytecode": "0x608060405234801561001057600080fd5b50610ce3806100206000396000f3fe608060405234801561001057600080fd5b506004361061004c5760003560e01c806317bf37a3146100515780634a07147f14610085578063811256e9146100a3578063b60e73db146100bf575b600080fd5b61006b60048036038101906100669190610604565b6100f3565b60405161007c959493929190610711565b60405180910390f35b61008d6102e8565b60405161009a9190610772565b60405180910390f35b6100bd60048036038101906100b891906108c2565b6102f4565b005b6100d960048036038101906100d49190610604565b610444565b6040516100ea959493929190610711565b60405180910390f35b6000606060006060600080600087815481106101125761011161094d565b5b90600052602060002090600502016040518060a00160405290816000820160009054906101000a900473ffffffffffffffffffffffffffffffffffffffff1673ffffffffffffffffffffffffffffffffffffffff1673ffffffffffffffffffffffffffffffffffffffff168152602001600182018054610191906109ab565b80601f01602080910402602001604051908101604052809291908181526020018280546101bd906109ab565b801561020a5780601f106101df5761010080835404028352916020019161020a565b820191906000526020600020905b8154815290600101906020018083116101ed57829003601f168201915b505050505081526020016002820154815260200160038201805461022d906109ab565b80601f0160208091040260200160405190810160405280929190818152602001828054610259906109ab565b80156102a65780601f1061027b576101008083540402835291602001916102a6565b820191906000526020600020905b81548152906001019060200180831161028957829003601f168201915b50505050508152602001600482015481525050905080600001518160200151826040015183606001518460800151955095509550955095505091939590929450565b60008080549050905090565b60006040518060a001604052803373ffffffffffffffffffffffffffffffffffffffff168152602001858152602001848152602001838152602001428152509050600081908060018154018082558091505060019003906000526020600020906005020160009091909190915060008201518160000160006101000a81548173ffffffffffffffffffffffffffffffffffffffff021916908373ffffffffffffffffffffffffffffffffffffffff16021790555060208201518160010190816103bd9190610b88565b506040820151816002015560608201518160030190816103dd9190610b88565b506080820151816004015550503373ffffffffffffffffffffffffffffffffffffffff167f3cf5bca95a3f5d04660421519c6233794b3584208ed7772b0547211081c28391858585426040516104369493929190610c5a565b60405180910390a250505050565b6000818154811061045457600080fd5b90600052602060002090600502016000915090508060000160009054906101000a900473ffffffffffffffffffffffffffffffffffffffff169080600101805461049d906109ab565b80601f01602080910402602001604051908101604052809291908181526020018280546104c9906109ab565b80156105165780601f106104eb57610100808354040283529160200191610516565b820191906000526020600020905b8154815290600101906020018083116104f957829003601f168201915b505050505090806002015490806003018054610531906109ab565b80601f016020809104026020016040519081016040528092919081815260200182805461055d906109ab565b80156105aa5780601f1061057f576101008083540402835291602001916105aa565b820191906000526020600020905b81548152906001019060200180831161058d57829003601f168201915b5050505050908060040154905085565b6000604051905090565b600080fd5b600080fd5b6000819050919050565b6105e1816105ce565b81146105ec57600080fd5b50565b6000813590506105fe816105d8565b92915050565b60006020828403121561061a576106196105c4565b5b6000610628848285016105ef565b91505092915050565b600073ffffffffffffffffffffffffffffffffffffffff82169050919050565b600061065c82610631565b9050919050565b61066c81610651565b82525050565b600081519050919050565b600082825260208201905092915050565b60005b838110156106ac578082015181840152602081019050610691565b60008484015250505050565b6000601f19601f8301169050919050565b60006106d482610672565b6106de818561067d565b93506106ee81856020860161068e565b6106f7816106b8565b840191505092915050565b61070b816105ce565b82525050565b600060a0820190506107266000830188610663565b818103602083015261073881876106c9565b90506107476040830186610702565b818103606083015261075981856106c9565b90506107686080830184610702565b9695505050505050565b60006020820190506107876000830184610702565b92915050565b600080fd5b600080fd5b7f4e487b7100000000000000000000000000000000000000000000000000000000600052604160045260246000fd5b6107cf826106b8565b810181811067ffffffffffffffff821117156107ee576107ed610797565b5b80604052505050565b60006108016105ba565b905061080d82826107c6565b919050565b600067ffffffffffffffff82111561082d5761082c610797565b5b610836826106b8565b9050602081019050919050565b82818337600083830152505050565b600061086561086084610812565b6107f7565b90508281526020810184848401111561088157610880610792565b5b61088c848285610843565b509392505050565b600082601f8301126108a9576108a861078d565b5b81356108b9848260208601610852565b91505092915050565b6000806000606084860312156108db576108da6105c4565b5b600084013567ffffffffffffffff8111156108f9576108f86105c9565b5b61090586828701610894565b9350506020610916868287016105ef565b925050604084013567ffffffffffffffff811115610937576109366105c9565b5b61094386828701610894565b9150509250925092565b7f4e487b7100000000000000000000000000000000000000000000000000000000600052603260045260246000fd5b7f4e487b7100000000000000000000000000000000000000000000000000000000600052602260045260246000fd5b600060028204905060018216806109c357607f821691505b6020821081036109d6576109d561097c565b5b50919050565b60008190508160005260206000209050919050565b60006020601f8301049050919050565b600082821b905092915050565b600060088302610a3e7fffffffffffffffffffffffffffffffffffffffffffffffffffffffffffffffff82610a01565b610a488683610a01565b95508019841693508086168417925050509392505050565b6000819050919050565b6000610a85610a80610a7b846105ce565b610a60565b6105ce565b9050919050565b6000819050919050565b610a9f83610a6a565b610ab3610aab82610a8c565b848454610a0e565b825550505050565b600090565b610ac8610abb565b610ad3818484610a96565b505050565b5b81811015610af757610aec600082610ac0565b600181019050610ad9565b5050565b601f821115610b3c57610b0d816109dc565b610b16846109f1565b81016020851015610b25578190505b610b39610b31856109f1565b830182610ad8565b50505b505050565b600082821c905092915050565b6000610b5f60001984600802610b41565b1980831691505092915050565b6000610b788383610b4e565b9150826002028217905092915050565b610b9182610672565b67ffffffffffffffff811115610baa57610ba9610797565b5b610bb482546109ab565b610bbf828285610afb565b600060209050601f831160018114610bf25760008415610be0578287015190505b610bea8582610b6c565b865550610c52565b601f198416610c00866109dc565b60005b82811015610c2857848901518255600182019150602085019450602081019050610c03565b86831015610c455784890151610c41601f891682610b4e565b8355505b6001600288020188555050505b505050505050565b60006080820190508181036000830152610c7481876106c9565b9050610c836020830186610702565b8181036040830152610c9581856106c9565b9050610ca46060830184610702565b9594505050505056fea26469706673582212205cfce03b1cd5cfde3b98c2ac23b73612c65b64a3736623affe990162c7d7fae864736f6c63430008140033",
  "linkReferences": {},
  "deployedLinkReferences": {}
}