{"contracts/AuditRegistry.sol":{"AuditRegistry":{"abi":[{"anonymous":false,"inputs":[{"indexed":true,"internalType":"address","name":"requester","type":"address"},{"indexed":false,"internalType":"string","name":"contractName","type":"string"},{"indexed":false,"internalType":"uint256","name":"securityScore","type":"uint256"},{"indexed":false,"internalType":"string","name":"ipfsCid","type":"string"},{"indexed":false,"internalType":"uint256","name":"timestamp","type":"uint256"}],"name":"AuditStored","type":"event"},{"inputs":[{"internalType":"uint256","name":"","type":"uint256"}],"name":"audits","outputs":[{"internalType":"address","name":"requester","type":"address"},{"internalType":"string","name":"contractName","type":"string"},{"internalType":"uint256","name":"securityScore","type":"uint256"},{"internalType":"string","name":"ipfsCid","type":"string"},{"internalType":"uint256","name":"timestamp","type":"uint256"}],"stateMutability":"view","type":"function"},{"inputs":[{"internalType":"uint256","name":"index","type":"uint256"}],"name":"getAudit","outputs":[{"internalType":"address","name":"requester","type":"address"},{"internalType":"string","name":"contractName","type":"string"},{"internalType":"uint256","name":"securityScore","type":"uint256"},{"internalType":"string","name":"ipfsCid","type":"string"},{"internalType":"uint256","name":"timestamp","type":"uint256"}],"stateMutability":"view","type":"function"},{"inputs":[{"internalType":"string","name":"_contractName","type":"string"},{"internalType":"uint256","name":"_securityScore","type":"uint256"},{"internalType":"string","name":"_ipfsCid","type":"string"}],"name":"storeAudit","outputs":[],"stateMutability":"nonpayable","type":"function"},{"inputs":[],"name":"totalAudits","outputs":[{"internalType":"uint256","name":"","type":"uint256"}],"stateMutability":"view","type":"function"}],"evm":{"bytecode":{"linkReferences":{},"object":"608060405234801561001057600080fd5b50610ce3806100206000396000f3fe608060405234801561001057600080fd5b506004361061004c5760003560e01c806317bf37a3146100515780634a07147f14610085578063811256e9146100a3578063b60e73db146100bf575b600080fd5b61006b60048036038101906100669190610604565b6100f3565b60405161007c959493929190610711565b60405180910390f35b61008d6102e8565b60405161009a9190610772565b60405180910390f35b6100bd60048036038101906100b891906108c2565b6102f4565b005b6100d960048036038101906100d49190610604565b610444565b6040516100ea959493929190610711565b60405180910390f35b6000606060006060600080600087815481106101125761011161094d565b5b90600052602060002090600502016040518060a00160405290816000820160009054906101000a900473ffffffffffffffffffffffffffffffffffffffff1673ffffffffffffffffffffffffffffffffffffffff1673ffffffffffffffffffffffffffffffffffffffff168152602001600182018054610191906109ab565b80601f01602080910402602001604051908101604052809291908181526020018280546101bd906109ab565b801561020a5780601f106101df5761010080835404028352916020019161020a565b820191906000526020600020905b8154815290600101906020018083116101ed57829003601f168201915b505050505081526020016002820154815260200160038201805461022d906109ab565b80601f0160208091040260200160405190810160405280929190818152602001828054610259906109ab565b80156102a65780601f1061027b576101008083540402835291602001916102a6565b820191906000526020600020905b81548152906001019060200180831161028957829003601f168201915b50505050508152602001600482015481525050905080600001518160200151826040015183606001518460800151955095509550955095505091939590929450565b60008080549050905090565b60006040518060a001604052803373ffffffffffffffffffffffffffffffffffffffff168152602001858152602001848152602001838152602001428152509050600081908060018154018082558091505060019003906000526020600020906005020160009091909190915060008201518160000160006101000a81548173ffffffffffffffffffffffffffffffffffffffff021916908373ffffffffffffffffffffffffffffffffffffffff16021790555060208201518160010190816103bd9190610b88565b506040820151816002015560608201518160030190816103dd9190610b88565b506080820151816004015550503373ffffffffffffffffffffffffffffffffffffffff167f3cf5bca95a3f5d04660421519c6233794b3584208ed7772b0547211081c28391858585426040516104369493929190610c5a565b60405180910390a250505050565b6000818154811061045457600080fd5b90600052602060002090600502016000915090508060000160009054906101000a900473ffffffffffffffffffffffffffffffffffffffff169080600101805461049d906109ab565b80601f01602080910402602001604051908101604052809291908181526020018280546104c9906109ab565b80156105165780601f106104eb57610100808354040283529160200191610516565b820191906000526020600020905b8154815290600101906020018083116104f957829003601f168201915b505050505090806002015490806003018054610531906109ab565b80601f016020809104026020016040519081016040528092919081815260200182805461055d906109ab565b80156105aa5780601f1061057f576101008083540402835291602001916105aa565b820191906000526020600020905b81548152906001019060200180831161058d57829003601f168201915b5050505050908060040154905085565b6000604051905090565b600080fd5b600080fd5b6000819050919050565b6105e1816105ce565b81146105ec57600080fd5b50565b6000813590506105fe816105d8565b92915050565b60006020828403121561061a576106196105c4565b5b6000610628848285016105ef565b91505092915050565b600073ffffffffffffffffffffffffffffffffffffffff82169050919050565b600061065c82610631565b9050919050565b61066c81610651565b82525050565b600081519050919050565b600082825260208201905092915050565b60005b838110156106ac578082015181840152602081019050610691565b60008484015250505050565b6000601f19601f8301169050919050565b60006106d482610672565b6106de818561067d565b93506106ee81856020860161068e565b6106f7816106b8565b840191505092915050565b61070b816105ce565b82525050565b600060a0820190506107266000830188610663565b818103602083015261073881876106c9565b90506107476040830186610702565b818103606083015261075981856106c9565b90506107686080830184610702565b9695505050505050565b60006020820190506107876000830184610702565b92915050565b600080fd5b600080fd5b7f4e487b7100000000000000000000000000000000000000000000000000000000600052604160045260246000fd5b6107cf826106b8565b810181811067ffffffffffffffff821117156107ee576107ed610797565b5b80604052505050565b60006108016105ba565b905061080d82826107c6565b919050565b600067ffffffffffffffff82111561082d5761082c610797565b5b610836826106b8565b9050602081019050919050565b82818337600083830152505050565b600061086561086084610812565b6107f7565b90508281526020810184848401111561088157610880610792565b5b61088c848285610843565b509392505050565b600082601f8301126108a9576108a861078d565b5b81356108b9848260208601610852565b91505092915050565b6000806000606084860312156108db576108da6105c4565b5b600084013567ffffffffffffffff8111156108f9576108f86105c9565b5b61090586828701610894565b9350506020610916868287016105ef565b925050604084013567ffffffffffffffff811115610937576109366105c9565b5b61094386828701610894565b9150509250925092565b7f4e487b7100000000000000000000000000000000000000000000000000000000600052603260045260246000fd5b7f4e487b7100000000000000000000000000000000000000000000000000000000600052602260045260246000fd5b600060028204905060018216806109c357607f821691505b6020821081036109d6576109d561097c565b5b50919050565b60008190508160005260206000209050919050565b60006020601f8301049050919050565b600082821b905092915050565b600060088302610a3e7fffffffffffffffffffffffffffffffffffffffffffffffffffffffffffffffff82610a01565b610a488683610a01565b95508019841693508086168417925050509392505050565b6000819050919050565b6000610a85610a80610a7b846105ce565b610a60565b6105ce565b9050919050565b6000819050919050565b610a9f83610a6a565b610ab3610aab82610a8c565b848454610a0e565b825550505050565b600090565b610ac8610abb565b610ad3818484610a96565b505050565b5b81811015610af757610aec600082610ac0565b600181019050610ad9565b5050565b601f821115610b3c57610b0d816109dc565b610b16846109f1565b81016020851015610b25578190505b610b39610b31856109f1565b830182610ad8565b50505b505050565b600082821c905092915050565b6000610b5f60001984600802610b41565b1980831691505092915050565b6000610b788383610b4e565b9150826002028217905092915050565b610b9182610672565b67ffffffffffffffff811115610baa57610ba9610797565b5b610bb482546109ab565b610bbf828285610afb565b600060209050601f831160018114610bf25760008415610be0578287015190505b610bea8582610b6c565b865550610c52565b601f198416610c00866109dc565b60005b82811015610c2857848901518255600182019150602085019450602081019050610c03565b86831015610c455784890151610c41601f891682610b4e565b8355505b6001600288020188555050505b505050505050565b60006080820190508181036000830152610c7481876106c9565b9050610c836020830186610702565b8181036040830152610c9581856106c9565b9050610ca46060830184610702565b9594505050505056fea26469706673582212205cfce03b1cd5cfde3b98c2ac23b73612c65b64a3736623affe990162c7d7fae864736f6c63430008140033","opcodes":"PUSH1 0x80 PUSH1 0x40 MSTORE CALLVALUE DUP1 ISZERO PUSH2 0x10 JUMPI PUSH1 0x0 DUP1 REVERT JUMPDEST POP PUSH2 0xCE3 DUP1 PUSH2 0x20 PUSH1 0x0 CODECOPY PUSH1 0x0 RETURN INVALID PUSH1 0x80 PUSH1 0x40 MSTORE CALLVALUE DUP1 ISZERO PUSH2 0x10 JUMPI PUSH1 0x0 DUP1 REVERT JUMPDEST POP PUSH1 0x4 CALLDATASIZE LT PUSH2 0x4C JUMPI PUSH1 0x0 CALLDATALOAD PUSH1 0xE0 SHR DUP1 PUSH4 0x17BF37A3 EQ PUSH2 0x51 JUMPI DUP1 PUSH4 0x4A07147F EQ PUSH2 0x85 JUMPI DUP1 PUSH4 0x811256E9 EQ PUSH2 0xA3 JUMPI DUP1 PUSH4 0xB60E73DB EQ PUSH2 0xBF JUMPI JUMPDEST PUSH1 0x0 DUP1 REVERT JUMPDEST PUSH2 0x6B PUSH1 0x4 DUP1 CALLDATASIZE SUB DUP2 ADD SWAP1 PUSH2 0x66 SWAP2 SWAP1 PUSH2 0x604 JUMP JUMPDEST PUSH2 0xF3 JUMP JUMPDEST PUSH1 0x40 MLOAD PUSH2 0x7C SWAP6 SWAP5 SWAP4 SWAP3 SWAP2 SWAP1 PUSH2 0x711 JUMP JUMPDEST PUSH1 0x40 MLOAD DUP1 SWAP2 SUB SWAP1 RETURN JUMPDEST PUSH2 0x8D PUSH2 0x2E8 JUMP JUMPDEST PUSH1 0x40 MLOAD PUSH2 0x9A SWAP2 SWAP1 PUSH2 0x772 JUMP JUMPDEST PUSH1 0x40 MLOAD DUP1 SWAP2 SUB SWAP1 RETURN JUMPDEST PUSH2 0xBD PUSH1 0x4 DUP1 CALLDATASIZE SUB DUP2 ADD SWAP1 PUSH2 0xB8 SWAP2 SWAP1 PUSH2 0x8C2 JUMP JUMPDEST PUSH2 0x2F4 JUMP JUMPDEST STOP JUMPDEST PUSH2 0xD9 PUSH1 0x4 DUP1 CALLDATASIZE SUB DUP2 ADD SWAP1 PUSH2 0xD4 SWAP2 SWAP1 PUSH2 0x604 JUMP JUMPDEST PUSH2 0x444 JUMP JUMPDEST PUSH1 0x40 MLOAD PUSH2 0xEA SWAP6 SWAP5 SWAP4 SWAP3 SWAP2 SWAP1 PUSH2 0x711 JUMP JUMPDEST PUSH1 0x40 MLOAD DUP1 SWAP2 SUB SWAP1 RETURN JUMPDEST PUSH1 0x0 PUSH1 0x60 PUSH1 0x0 PUSH1 0x60 PUSH1 0x0 DUP1 PUSH1 0x0 DUP8 DUP2 SLOAD DUP2 LT PUSH2 0x112 JUMPI PUSH2 0x111 PUSH2 0x94D JUMP JUMPDEST JUMPDEST SWAP1 PUSH1 0x0 MSTORE PUSH1 0x20 PUSH1 0x0 KECCAK256 SWAP1 PUSH1 0x5 MUL ADD PUSH1 0x40 MLOAD DUP1 PUSH1 0xA0 ADD PUSH1 0x40 MSTORE SWAP1 DUP2 PUSH1 0x0 DUP3 ADD PUSH1 0x0 SWAP1 SLOAD SWAP1 PUSH2 0x100 EXP SWAP1 DIV PUSH20 0xFFFFFFFFFFFFFFFFFFFFFFFFFFFFFFFFFFFFFFFF AND PUSH20 0xFFFFFFFFFFFFFFFFFFFFFFFFFFFFFFFFFFFFFFFF AND PUSH20 0xFFFFFFFFFFFFFFFFFFFFFFFFFFFFFFFFFFFFFFFF AND DUP2 MSTORE PUSH1 0x20 ADD PUSH1 0x1 DUP3 ADD DUP1 SLOAD PUSH2 0x191 SWAP1 PUSH2 0x9AB JUMP JUMPDEST DUP1 PUSH1 0x1F ADD PUSH1 0x20 DUP1 SWAP2 DIV MUL PUSH1 0x20 ADD PUSH1 0x40 MLOAD SWAP1 DUP2 ADD PUSH1 0x40 MSTORE DUP1 SWAP3 SWAP2 SWAP1 DUP2 DUP2 MSTORE PUSH1 0x20 ADD DUP3 DUP1 SLOAD PUSH2 0x1BD SWAP1 PUSH2 0x9AB JUMP JUMPDEST DUP1 ISZERO PUSH2 0x20A JUMPI DUP1 PUSH1 0x1F LT PUSH2 0x1DF JUMPI PUSH2 0x100 DUP1 DUP4 SLOAD DIV MUL DUP4 MSTORE SWAP2 PUSH1 0x20 ADD SWAP2 PUSH2 0x20A JUMP JUMPDEST DUP3 ADD SWAP2 SWAP1 PUSH1 0x0 MSTORE PUSH1 0x20 PUSH1 0x0 KECCAK256 SWAP1 JUMPDEST DUP2 SLOAD DUP2 MSTORE SWAP1 PUSH1 0x1 ADD SWAP1 PUSH1 0x20 ADD DUP1 DUP4 GT PUSH2 0x1ED JUMPI DUP3 SWAP1 SUB PUSH1 0x1F AND DUP3 ADD SWAP2 JUMPDEST POP POP POP POP POP DUP2 MSTORE PUSH1 0x20 ADD PUSH1 0x2 DUP3 ADD SLOAD DUP2 MSTORE PUSH1 0x20 ADD PUSH1 0x3 DUP3 ADD DUP1 SLOAD PUSH2 0x22D SWAP1 PUSH2 0x9AB JUMP JUMPDEST DUP1 PUSH1 0x1F ADD PUSH1 0x20 DUP1 SWAP2 DIV MUL PUSH1 0x20 ADD PUSH1 0x40 MLOAD SWAP1 DUP2 ADD PUSH1 0x40 MSTORE DUP1 SWAP3 SWAP2 SWAP1 DUP2 DUP2 MSTORE PUSH1 0x20 ADD DUP3 DUP1 SLOAD PUSH2 0x259 SWAP1 PUSH2 0x9AB JUMP JUMPDEST DUP1 ISZERO PUSH2 0x2A6 JUMPI DUP1 PUSH1 0x1F LT PUSH2 0x27B JUMPI PUSH2 0x100 DUP1 DUP4 SLOAD DIV MUL DUP4 MSTORE SWAP2 PUSH1 0x20 ADD SWAP2 PUSH2 0x2A6 JUMP JUMPDEST DUP3 ADD SWAP2 SWAP1 PUSH1 0x0 MSTORE PUSH1 0x20 PUSH1 0x0 KECCAK256 SWAP1 JUMPDEST DUP2 SLOAD DUP2 MSTORE SWAP1 PUSH1 0x1 ADD SWAP1 PUSH1 0x20 ADD DUP1 DUP4 GT PUSH2 0x289 JUMPI DUP3 SWAP1 SUB PUSH1 0x1F AND DUP3 ADD SWAP2 JUMPDEST POP POP POP POP POP DUP2 MSTORE PUSH1 0x20 ADD PUSH1 0x4 DUP3 ADD SLOAD DUP2 MSTORE POP POP SWAP1 POP DUP1 PUSH1 0x0 ADD MLOAD DUP2 PUSH1 0x20 ADD MLOAD DUP3 PUSH1 0x40 ADD MLOAD DUP4 PUSH1 0x60 ADD MLOAD DUP5 PUSH1 0x80 ADD MLOAD SWAP6 POP SWAP6 POP SWAP6 POP SWAP6 POP SWAP6 POP POP SWAP2 SWAP4 SWAP6 SWAP1 SWAP3 SWAP5 POP JUMP JUMPDEST PUSH1 0x0 DUP1 DUP1 SLOAD SWAP1 POP SWAP1 POP SWAP1 JUMP JUMPDEST PUSH1 0x0 PUSH1 0x40 MLOAD DUP1 PUSH1 0xA0 ADD PUSH1 0x40 MSTORE DUP1 CALLER PUSH20 0xFFFFFFFFFFFFFFFFFFFFFFFFFFFFFFFFFFFFFFFF AND DUP2 MSTORE PUSH1 0x20 ADD DUP6 DUP2 MSTORE PUSH1 0x20 ADD DUP5 DUP2 MSTORE PUSH1 0x20 ADD DUP4 DUP2 MSTORE PUSH1 0x20 ADD TIMESTAMP DUP2 MSTORE POP SWAP1 POP PUSH1 0x0 DUP2 SWAP1 DUP1 PUSH1 0x1 DUP2 SLOAD ADD DUP1 DUP3 SSTORE DUP1 SWAP2 POP POP PUSH1 0x1 SWAP1 SUB SWAP1 PUSH1 0x0 MSTORE PUSH1 0x20 PUSH1 0x0 KECCAK256 SWAP1 PUSH1 0x5 MUL ADD PUSH1 0x0 SWAP1 SWAP2 SWAP1 SWAP2 SWAP1 SWAP2 POP PUSH1 0x0 DUP3 ADD MLOAD DUP2 PUSH1 0x0 ADD PUSH1 0x0 PUSH2 0x100 EXP DUP2 SLOAD DUP2 PUSH20 0xFFFFFFFFFFFFFFFFFFFFFFFFFFFFFFFFFFFFFFFF MUL NOT AND SWAP1 DUP4 PUSH20 0xFFFFFFFFFFFFFFFFFFFFFFFFFFFFFFFFFFFFFFFF AND MUL OR SWAP1 SSTORE POP PUSH1 0x20 DUP3 ADD MLOAD DUP2 PUSH1 0x1 ADD SWAP1 DUP2 PUSH2 0x3BD SWAP2 SWAP1 PUSH2 0xB88 JUMP JUMPDEST POP PUSH1 0x40 DUP3 ADD MLOAD DUP2 PUSH1 0x2 ADD SSTORE PUSH1 0x60 DUP3 ADD MLOAD DUP2 PUSH1 0x3 ADD SWAP1 DUP2 PUSH2 0x3DD SWAP2 SWAP1 PUSH2 0xB88 JUMP JUMPDEST POP PUSH1 0x80 DUP3 ADD MLOAD DUP2 PUSH1 0x4 ADD SSTORE POP POP CALLER PUSH20 0xFFFFFFFFFFFFFFFFFFFFFFFFFFFFFFFFFFFFFFFF AND PUSH32 0x3CF5BCA95A3F5D04660421519C6233794B3584208ED7772B0547211081C28391 DUP6 DUP6 DUP6 TIMESTAMP PUSH1 0x40 MLOAD PUSH2 0x436 SWAP5 SWAP4 SWAP3 SWAP2 SWAP1 PUSH2 0xC5A JUMP JUMPDEST PUSH1 0x40 MLOAD DUP1 SWAP2 SUB SWAP1 LOG2 POP POP POP POP JUMP JUMPDEST PUSH1 0x0 DUP2 DUP2 SLOAD DUP2 LT PUSH2 0x454 JUMPI PUSH1 0x0 DUP1 REVERT JUMPDEST SWAP1 PUSH1 0x0 MSTORE PUSH1 0x20 PUSH1 0x0 KECCAK256 SWAP1 PUSH1 0x5 MUL ADD PUSH1 0x0 SWAP2 POP SWAP1 POP DUP1 PUSH1 0x0 ADD PUSH1 0x0 SWAP1 SLOAD SWAP1 PUSH2 0x100 EXP SWAP1 DIV PUSH20 0xFFFFFFFFFFFFFFFFFFFFFFFFFFFFFFFFFFFFFFFF AND SWAP1 DUP1 PUSH1 0x1 ADD DUP1 SLOAD PUSH2 0x49D SWAP1 PUSH2 0x9AB JUMP JUMPDEST DUP1 PUSH1 0x1F ADD PUSH1 0x20 DUP1 SWAP2 DIV MUL PUSH1 0x20 ADD PUSH1 0x40 MLOAD SWAP1 DUP2 ADD PUSH1 0x40 MSTORE DUP1 SWAP3 SWAP2 SWAP1 DUP2 DUP2 MSTORE PUSH1 0x20 ADD DUP3 DUP1 SLOAD PUSH2 0x4C9 SWAP1 PUSH2 0x9AB JUMP JUMPDEST DUP1 ISZERO PUSH2 0x516 JUMPI DUP1 PUSH1 0x1F LT PUSH2 0x4EB JUMPI PUSH2 0x100 DUP1 DUP4 SLOAD DIV MUL DUP4 MSTORE SWAP2 PUSH1 0x20 ADD SWAP2 PUSH2 0x516 JUMP JUMPDEST DUP3 ADD SWAP2 SWAP1 PUSH1 0x0 MSTORE PUSH1 0x20 PUSH1 0x0 KECCAK256 SWAP1 JUMPDEST DUP2 SLOAD DUP2 MSTORE SWAP1 PUSH1 0x1 ADD SWAP1 PUSH1 0x20 ADD DUP1 DUP4 GT PUSH2 0x4F9 JUMPI DUP3 SWAP1 SUB PUSH1 0x1F AND DUP3 ADD SWAP2 JUMPDEST POP POP POP POP POP SWAP1 DUP1 PUSH1 0x2 ADD SLOAD SWAP1 DUP1 PUSH1 0x3 ADD DUP1 SLOAD PUSH2 0x531 SWAP1 PUSH2 0x9AB JUMP JUMPDEST DUP1 PUSH1 0x1F ADD PUSH1 0x20 DUP1 SWAP2 DIV MUL PUSH1 0x20 ADD PUSH1 0x40 MLOAD SWAP1 DUP2 ADD PUSH1 0x40 MSTORE DUP1 SWAP3 SWAP2 SWAP1 DUP2 DUP2 MSTORE PUSH1 0x20 ADD DUP3 DUP1 SLOAD PUSH2 0x55D SWAP1 PUSH2 0x9AB JUMP JUMPDEST DUP1 ISZERO PUSH2 0x5AA JUMPI DUP1 PUSH1 0x1F LT PUSH2 0x57F JUMPI PUSH2 0x100 DUP1 DUP4 SLOAD DIV MUL DUP4 MSTORE SWAP2 PUSH1 0x20 ADD SWAP2 PUSH2 0x5AA JUMP JUMPDEST DUP3 ADD SWAP2 SWAP1 PUSH1 0x0 MSTORE PUSH1 0x20 PUSH1 0x0 KECCAK256 SWAP1 JUMPDEST DUP2 SLOAD DUP2 MSTORE SWAP1 PUSH1 0x1 ADD SWAP1 PUSH1 0x20 ADD DUP1 DUP4 GT PUSH2 0x58D JUMPI DUP3 SWAP1 SUB PUSH1 0x1F AND DUP3 ADD SWAP2 JUMPDEST POP POP POP POP POP SWAP1 DUP1 PUSH1 0x4 ADD SLOAD SWAP1 POP DUP6 JUMP JUMPDEST PUSH1 0x0 PUSH1 0x40 MLOAD SWAP1 POP SWAP1 JUMP JUMPDEST PUSH1 0x0 DUP1 REVERT JUMPDEST PUSH1 0x0 DUP1 REVERT JUMPDEST PUSH1 0x0 DUP2 SWAP1 POP SWAP2 SWAP1 POP JUMP JUMPDEST PUSH2 0x5E1 DUP2 PUSH2 0x5CE JUMP JUMPDEST DUP2 EQ PUSH2 0x5EC JUMPI PUSH1 0x0 DUP1 REVERT JUMPDEST POP JUMP JUMPDEST PUSH1 0x0 DUP2 CALLDATALOAD SWAP1 POP PUSH2 0x5FE DUP2 PUSH2 0x5D8 JUMP JUMPDEST SWAP3 SWAP2 POP POP JUMP JUMPDEST PUSH1 0x0 PUSH1 0x20 DUP3 DUP5 SUB SLT ISZERO PUSH2 0x61A JUMPI PUSH2 0x619 PUSH2 0x5C4 JUMP JUMPDEST JUMPDEST PUSH1 0x0 PUSH2 0x628 DUP5 DUP3 DUP6 ADD PUSH2 0x5EF JUMP JUMPDEST SWAP2 POP POP SWAP3 SWAP2 POP POP JUMP JUMPDEST PUSH1 0x0 PUSH20 0xFFFFFFFFFFFFFFFFFFFFFFFFFFFFFFFFFFFFFFFF DUP3 AND SWAP1 POP SWAP2 SWAP1 POP JUMP JUMPDEST PUSH1 0x0 PUSH2 0x65C DUP3 PUSH2 0x631 JUMP JUMPDEST SWAP1 POP SWAP2 SWAP1 POP JUMP JUMPDEST PUSH2 0x66C DUP2 PUSH2 0x651 JUMP JUMPDEST DUP3 MSTORE POP POP JUMP JUMPDEST PUSH1 0x0 DUP2 MLOAD SWAP1 POP SWAP2 SWAP1 POP JUMP JUMPDEST PUSH1 0x0 DUP3 DUP3 MSTORE PUSH1 0x20 DUP3 ADD SWAP1 POP SWAP3 SWAP2 POP POP JUMP JUMPDEST PUSH1 0x0 JUMPDEST DUP4 DUP2 LT ISZERO PUSH2 0x6AC JUMPI DUP1 DUP3 ADD MLOAD DUP2 DUP5 ADD MSTORE PUSH1 0x20 DUP2 ADD SWAP1 POP PUSH2 0x691 JUMP JUMPDEST PUSH1 0x0 DUP5 DUP5 ADD MSTORE POP POP POP POP JUMP JUMPDEST PUSH1 0x0 PUSH1 0x1F NOT PUSH1 0x1F DUP4 ADD AND SWAP1 POP SWAP2 SWAP1 POP JUMP JUMPDEST PUSH1 0x0 PUSH2 0x6D4 DUP3 PUSH2 0x672 JUMP JUMPDEST PUSH2 0x6DE DUP2 DUP6 PUSH2 0x67D JUMP JUMPDEST SWAP4 POP PUSH2 0x6EE DUP2 DUP6 PUSH1 0x20 DUP7 ADD PUSH2 0x68E JUMP JUMPDEST PUSH2 0x6F7 DUP2 PUSH2 0x6B8 JUMP JUMPDEST DUP5 ADD SWAP2 POP POP SWAP3 SWAP2 POP POP JUMP JUMPDEST PUSH2 0x70B DUP2 PUSH2 0x5CE JUMP JUMPDEST DUP3 MSTORE POP POP JUMP JUMPDEST PUSH1 0x0 PUSH1 0xA0 DUP3 ADD SWAP1 POP PUSH2 0x726 PUSH1 0x0 DUP4 ADD DUP9 PUSH2 0x663 JUMP JUMPDEST DUP2 DUP2 SUB PUSH1 0x20 DUP4 ADD MSTORE PUSH2 0x738 DUP2 DUP8 PUSH2 0x6C9 JUMP JUMPDEST SWAP1 POP PUSH2 0x747 PUSH1 0x40 DUP4 ADD DUP7 PUSH2 0x702 JUMP JUMPDEST DUP2 DUP2 SUB PUSH1 0x60 DUP4 ADD MSTORE PUSH2 0x759 DUP2 DUP6 PUSH2 0x6C9 JUMP JUMPDEST SWAP1 POP PUSH2 0x768 PUSH1 0x80 DUP4 ADD DUP5 PUSH2 0x702 JUMP JUMPDEST SWAP7 SWAP6 POP POP POP POP POP POP JUMP JUMPDEST PUSH1 0x0 PUSH1 0x20 DUP3 ADD SWAP1 POP PUSH2 0x787 PUSH1 0x0 DUP4 ADD DUP5 PUSH2 0x702 JUMP JUMPDEST SWAP3 SWAP2 POP POP JUMP JUMPDEST PUSH1 0x0 DUP1 REVERT JUMPDEST PUSH1 0x0 DUP1 REVERT JUMPDEST PUSH32 0x4E487B7100000000000000000000000000000000000000000000000000000000 PUSH1 0x0 MSTORE PUSH1 0x41 PUSH1 0x4 MSTORE PUSH1 0x24 PUSH1 0x0 REVERT JUMPDEST PUSH2 0x7CF DUP3 PUSH2 0x6B8 JUMP JUMPDEST DUP2 ADD DUP2 DUP2 LT PUSH8 0xFFFFFFFFFFFFFFFF DUP3 GT OR ISZERO PUSH2 0x7EE JUMPI PUSH2 0x7ED PUSH2 0x797 JUMP JUMPDEST JUMPDEST DUP1 PUSH1 0x40 MSTORE POP POP POP JUMP JUMPDEST PUSH1 0x0 PUSH2 0x801 PUSH2 0x5BA JUMP JUMPDEST SWAP1 POP PUSH2 0x80D DUP3 DUP3 PUSH2 0x7C6 JUMP JUMPDEST SWAP2 SWAP1 POP JUMP JUMPDEST PUSH1 0x0 PUSH8 0xFFFFFFFFFFFFFFFF DUP3 GT ISZERO PUSH2 0x82D JUMPI PUSH2 0x82C PUSH2 0x797 JUMP JUMPDEST JUMPDEST PUSH2 0x836 DUP3 PUSH2 0x6B8 JUMP JUMPDEST SWAP1 POP PUSH1 0x20 DUP2 ADD SWAP1 POP SWAP2 SWAP1 POP JUMP JUMPDEST DUP3 DUP2 DUP4 CALLDATACOPY PUSH1 0x0 DUP4 DUP4 ADD MSTORE POP POP POP JUMP JUMPDEST PUSH1 0x0 PUSH2 0x865 PUSH2 0x860 DUP5 PUSH2 0x812 JUMP JUMPDEST PUSH2 0x7F7 JUMP JUMPDEST SWAP1 POP DUP3 DUP2 MSTORE PUSH1 0x20 DUP2 ADD DUP5 DUP5 DUP5 ADD GT ISZERO PUSH2 0x881 JUMPI PUSH2 0x880 PUSH2 0x792 JUMP JUMPDEST JUMPDEST PUSH2 0x88C DUP5 DUP3 DUP6 PUSH2 0x843 JUMP JUMPDEST POP SWAP4 SWAP3 POP POP POP JUMP JUMPDEST PUSH1 0x0 DUP3 PUSH1 0x1F DUP4 ADD SLT PUSH2 0x8A9 JUMPI PUSH2 0x8A8 PUSH2 0x78D JUMP JUMPDEST JUMPDEST DUP2 CALLDATALOAD PUSH2 0x8B9 DUP5 DUP3 PUSH1 0x20 DUP7 ADD PUSH2 0x852 JUMP JUMPDEST SWAP2 POP POP SWAP3 SWAP2 POP POP JUMP JUMPDEST PUSH1 0x0 DUP1 PUSH1 0x0 PUSH1 0x60 DUP5 DUP7 SUB SLT ISZERO PUSH2 0x8DB JUMPI PUSH2 0x8DA PUSH2 0x5C4 JUMP JUMPDEST JUMPDEST PUSH1 0x0 DUP5 ADD CALLDATALOAD PUSH8 0xFFFFFFFFFFFFFFFF DUP2 GT ISZERO PUSH2 0x8F9 JUMPI PUSH2 0x8F8 PUSH2 0x5C9 JUMP JUMPDEST JUMPDEST PUSH2 0x905 DUP7 DUP3 DUP8 ADD PUSH2 0x894 JUMP JUMPDEST SWAP4 POP POP PUSH1 0x20 PUSH2 0x916 DUP7 DUP3 DUP8 ADD PUSH2 0x5EF JUMP JUMPDEST SWAP3 POP POP PUSH1 0x40 DUP5 ADD CALLDATALOAD PUSH8 0xFFFFFFFFFFFFFFFF DUP2 GT ISZERO PUSH2 0x937 JUMPI PUSH2 0x936 PUSH2 0x5C9 JUMP JUMPDEST JUMPDEST PUSH2 0x943 DUP7 DUP3 DUP8 ADD PUSH2 0x894 JUMP JUMPDEST SWAP2 POP POP SWAP3 POP SWAP3 POP SWAP3 JUMP JUMPDEST PUSH32 0x4E487B7100000000000000000000000000000000000000000000000000000000 PUSH1 0x0 MSTORE PUSH1 0x32 PUSH1 0x4 MSTORE PUSH1 0x24 PUSH1 0x0 REVERT JUMPDEST PUSH32 0x4E487B7100000000000000000000000000000000000000000000000000000000 PUSH1 0x0 MSTORE PUSH1 0x22 PUSH1 0x4 MSTORE PUSH1 0x24 PUSH1 0x0 REVERT JUMPDEST PUSH1 0x0 PUSH1 0x2 DUP3 DIV SWAP1 POP PUSH1 0x1 DUP3 AND DUP1 PUSH2 0x9C3 JUMPI PUSH1 0x7F DUP3 AND SWAP2 POP JUMPDEST PUSH1 0x20 DUP3 LT DUP2 SUB PUSH2 0x9D6 JUMPI PUSH2 0x9D5 PUSH2 0x97C JUMP JUMPDEST JUMPDEST POP SWAP2 SWAP1 POP JUMP JUMPDEST PUSH1 0x0 DUP2 SWAP1 POP DUP2 PUSH1 0x0 MSTORE PUSH1 0x20 PUSH1 0x0 KECCAK256 SWAP1 POP SWAP2 SWAP1 POP JUMP JUMPDEST PUSH1 0x0 PUSH1 0x20 PUSH1 0x1F DUP4 ADD DIV SWAP1 POP SWAP2 SWAP1 POP JUMP JUMPDEST PUSH1 0x0 DUP3 DUP3 SHL SWAP1 POP SWAP3 SWAP2 POP POP JUMP JUMPDEST PUSH1 0x0 PUSH1 0x8 DUP4 MUL PUSH2 0xA3E PUSH32 0xFFFFFFFFFFFFFFFFFFFFFFFFFFFFFFFFFFFFFFFFFFFFFFFFFFFFFFFFFFFFFFFF DUP3 PUSH2 0xA01 JUMP JUMPDEST PUSH2 0xA48 DUP7 DUP4 PUSH2 0xA01 JUMP JUMPDEST SWAP6 POP DUP1 NOT DUP5 AND SWAP4 POP DUP1 DUP7 AND DUP5 OR SWAP3 POP POP POP SWAP4 SWAP3 POP POP POP JUMP JUMPDEST PUSH1 0x0 DUP2 SWAP1 POP SWAP2 SWAP1 POP JUMP JUMPDEST PUSH1 0x0 PUSH2 0xA85 PUSH2 0xA80 PUSH2 0xA7B DUP5 PUSH2 0x5CE JUMP JUMPDEST PUSH2 0xA60 JUMP JUMPDEST PUSH2 0x5CE JUMP JUMPDEST SWAP1 POP SWAP2 SWAP1 POP JUMP JUMPDEST PUSH1 0x0 DUP2 SWAP1 POP SWAP2 SWAP1 POP JUMP JUMPDEST PUSH2 0xA9F DUP4 PUSH2 0xA6A JUMP JUMPDEST PUSH2 0xAB3 PUSH2 0xAAB DUP3 PUSH2 0xA8C JUMP JUMPDEST DUP5 DUP5 SLOAD PUSH2 0xA0E JUMP JUMPDEST DUP3 SSTORE POP POP POP POP JUMP JUMPDEST PUSH1 0x0 SWAP1 JUMP JUMPDEST PUSH2 0xAC8 PUSH2 0xABB JUMP JUMPDEST PUSH2 0xAD3 DUP2 DUP5 DUP5 PUSH2 0xA96 JUMP JUMPDEST POP POP POP JUMP JUMPDEST JUMPDEST DUP2 DUP2 LT ISZERO PUSH2 0xAF7 JUMPI PUSH2 0xAEC PUSH1 0x0 DUP3 PUSH2 0xAC0 JUMP JUMPDEST PUSH1 0x1 DUP2 ADD SWAP1 POP PUSH2 0xAD9 JUMP JUMPDEST POP POP JUMP JUMPDEST PUSH1 0x1F DUP3 GT ISZERO PUSH2 0xB3C JUMPI PUSH2 0xB0D DUP2 PUSH2 0x9DC JUMP JUMPDEST PUSH2 0xB16 DUP5 PUSH2 0x9F1 JUMP JUMPDEST DUP2 ADD PUSH1 0x20 DUP6 LT ISZERO PUSH2 0xB25 JUMPI DUP2 SWAP1 POP JUMPDEST PUSH2 0xB39 PUSH2 0xB31 DUP6 PUSH2 0x9F1 JUMP JUMPDEST DUP4 ADD DUP3 PUSH2 0xAD8 JUMP JUMPDEST POP POP JUMPDEST POP POP POP JUMP JUMPDEST PUSH1 0x0 DUP3 DUP3 SHR SWAP1 POP SWAP3 SWAP2 POP POP JUMP JUMPDEST PUSH1 0x0 PUSH2 0xB5F PUSH1 0x0 NOT DUP5 PUSH1 0x8 MUL PUSH2 0xB41 JUMP JUMPDEST NOT DUP1 DUP4 AND SWAP2 POP POP SWAP3 SWAP2 POP POP JUMP JUMPDEST PUSH1 0x0 PUSH2 0xB78 DUP4 DUP4 PUSH2 0xB4E JUMP JUMPDEST SWAP2 POP DUP3 PUSH1 0x2 MUL DUP3 OR SWAP1 POP SWAP3 SWAP2 POP POP JUMP JUMPDEST PUSH2 0xB91 DUP3 PUSH2 0x672 JUMP JUMPDEST PUSH8 0xFFFFFFFFFFFFFFFF DUP2 GT ISZERO PUSH2 0xBAA JUMPI PUSH2 0xBA9 PUSH2 0x797 JUMP JUMPDEST JUMPDEST PUSH2 0xBB4 DUP3 SLOAD PUSH2 0x9AB JUMP JUMPDEST PUSH2 0xBBF DUP3 DUP3 DUP6 PUSH2 0xAFB JUMP JUMPDEST PUSH1 0x0 PUSH1 0x20 SWAP1 POP PUSH1 0x1F DUP4 GT PUSH1 0x1 DUP2 EQ PUSH2 0xBF2 JUMPI PUSH1 0x0 DUP5 ISZERO PUSH2 0xBE0 JUMPI DUP3 DUP8 ADD MLOAD SWAP1 POP JUMPDEST PUSH2 0xBEA DUP6 DUP3 PUSH2 0xB6C JUMP JUMPDEST DUP7 SSTORE POP PUSH2 0xC52 JUMP JUMPDEST PUSH1 0x1F NOT DUP5 AND PUSH2 0xC00 DUP7 PUSH2 0x9DC JUMP JUMPDEST PUSH1 0x0 JUMPDEST DUP3 DUP2 LT ISZERO PUSH2 0xC28 JUMPI DUP5 DUP10 ADD MLOAD DUP3 SSTORE PUSH1 0x1 DUP3 ADD SWAP2 POP PUSH1 0x20 DUP6 ADD SWAP5 POP PUSH1 0x20 DUP2 ADD SWAP1 POP PUSH2 0xC03 JUMP JUMPDEST DUP7 DUP4 LT ISZERO PUSH2 0xC45 JUMPI DUP5 DUP10 ADD MLOAD PUSH2 0xC41 PUSH1 0x1F DUP10 AND DUP3 PUSH2 0xB4E JUMP JUMPDEST DUP4 SSTORE POP JUMPDEST PUSH1 0x1 PUSH1 0x2 DUP9 MUL ADD DUP9 SSTORE POP POP POP JUMPDEST POP POP POP POP POP POP JUMP JUMPDEST PUSH1 0x0 PUSH1 0x80 DUP3 ADD SWAP1 POP DUP2 DUP2 SUB PUSH1 0x0 DUP4 ADD MSTORE PUSH2 0xC74 DUP2 DUP8 PUSH2 0x6C9 JUMP JUMPDEST SWAP1 POP PUSH2 0xC83 PUSH1 0x20 DUP4 ADD DUP7 PUSH2 0x702 JUMP JUMPDEST DUP2 DUP2 SUB PUSH1 0x40 DUP4 ADD MSTORE PUSH2 0xC95 DUP2 DUP6 PUSH2 0x6C9 JUMP JUMPDEST SWAP1 POP PUSH2 0xCA4 PUSH1 0x60 DUP4 ADD DUP5 PUSH2 0x702 JUMP JUMPDEST SWAP6 SWAP5 POP POP POP POP POP JUMP INVALID LOG2 PUSH5 0x6970667358 0x22 SLT KECCAK256 0x5C 0xFC 0xE0 EXTCODESIZE SHR 0xD5 0xCF 0xDE EXTCODESIZE SWAP9 0xC2 0xAC 0x23 0xB7 CALLDATASIZE SLT 0xC6 JUMPDEST PUSH5 0xA3736623AF INVALID SWAP10 ADD PUSH3 0xC7D7FA 0xE8 PUSH5 0x736F6C6343 STOP ADDMOD EQ STOP CALLER "},"methodIdentifiers":{"audits(uint256)":"b60e73db","getAudit(uint256)":"17bf37a3","storeAudit(string,uint256,string)":"811256e9","totalAudits()":"4a07147f"}}}}}